:060000000A128A11142A05
:10000800F000030EF1000B1816200B1922202218FD
:100018000F280C182A208C187F20710E8300F00EF0
:10002800700E090003138312061CDA22861C1B2398
:10003800061DEE23861DF6220B10080003138312FB
:10004800FA3081000B118801F52408000B308F006D
:10005800DC308E000C10B20A3208023C0319352835
:100068000800201C38287720B201A50A25080A3C78
:1000780003193F280800A501A60A2608063C03190B
:1000880046280800A601A70A27080A3C03194D2894
:100098000800A701A80A2808063C031D5428572869
:1000A800351860280800A801A90A29083518602809
:1000B8000A3C0319692808002908043C031D66281E
:1000C8003510A901AA0170280800A901AA0A2A085E
:1000D800023C031935140800A501A601A701A801CF
:1000E800A901AA010800A10A21083C3C031D7E2899
:1000F8002010851208008C10B10A31080A3C031937
:1001080086280800B101051C8B2805108C280514C9
:10011800851C9028851091288514231DAC28221948
:10012800AC282D08003C031DA6282E08003C031D02
:10013800A6282F08003C031DA6283008003C031DF4
:10014800A628AC28AC0A2C08023C031DAC28C52004
:100158002218B328A218B9282219BF280800051D9B
:10016800B7280511B82805150800851DBD28851173
:10017800BE2885150800051EC3280512C4280516C3
:100188000800AC012B14AD032D08003C031DDD282D
:100198002E08003C031DDD282F08003C031DDD2828
:1001A8003008003C031DDD28DA28DD282B10201438
:0401B80085160800A0
:100400008A018A140F3982073F3406345B344F3433
:1004100066346D347D3407347F346F3477347C3404
:1004200039345E34793471346E225C22A222AF22D8
:10043000BD226322CB22031383122318242AA3187C
:10044000312A2319322A1D2A27080022B800280839
:100450000022B90029080022B6002A080022B700AD
:100460001D2A1D2A2D080022B8002E080022B900DE
:100470002F080022B60030080022B7002B1C5B2A90
:100480002D08FF3C031D5B2A0930AD00AE032D088B
:10049000FF3C031D5B2A0530AD00AF032F08FF3C76
:1004A000031D5B2A0930AF00B0033008FF3C031D79
:1004B0005B2A0030B0001D2A031383160F140F129D
:1004C0008F160F17080003138316161496141615AB
:1004D00096150313831206080B10080003178316E2
:1004E00088018901031383168701F0308800FC30EE
:1004F00089000614861406158615850181131514C6
:100500009514151595150313831287018801890128
:100510008501B301B601B801A001A101A201A301A7
:10052000A401A501A601A701A801A901AA01AB0187
:10053000AC01AD01AE01AF01B001B101B201B40136
:10054000B50108000313831681128111011581146E
:10055000011403138312FA3081000B1108000313F6
:1005600083121013901610169011901010140B3067
:100570008F00DC308E000C10080003138316C3308C
:100580009200031383129214121412179216121669
:10059000921512150800031383160C148C14031300
:1005A00083120B178B178B150B108B160B110C105E
:1005B0008C1008000618F52AA219F02A2018DC244D
:1005C000890A091C18230908013C0319DF240908BA
:1005D000023C0319E6240908033C0319ED24080032
:1005E000341CF42A3410F52A341408002318FD2A88
:1005F000A318062B23190F2B0800221C032B2210F3
:10060000A2110515052B2214A2150800A21C0C2B03
:10061000A210A21185150E2BA214A2150800221DEE
:10062000152B2211A2110516172B2215A215080051
:10063000891C091408003418512B221C8F2BA70A7F
:1006400027080022B80028080022B9002908002243
:10065000B6002A080022B70027080A3C031DED2B2C
:10066000A701A80A27080022B80028080022B9001C
:1006700029080022B6002A080022B7002808063CF4
:10068000031DED2BA801A701A80127080022B8002F
:1006900028080022B90029080022B6002A080022F2
:1006A000B700341C1B2B221CC52BA90A27080022CB
:1006B000B80028080022B90029080022B6002A083C
:1006C0000022B70035187B2B29080A3C031DED2BAF
:1006D000A901AA0A27080022B80028080022B900A8
:1006E00029080022B6002A080022B7002A08023C86
:1006F00003193514ED2B2908043C031DED2B35108F
:10070000AA01A90127080022B80028080022B90080
:1007100029080022B6002A080022B700ED2B341861
:10072000C52B221DED2BAD0A2D080022B8002E0886
:100730000022B9002F080022B60030080022B700BE
:100740002D080A3C031DED2BAD01AE0A2D08002239
:10075000B8002E080022B9002F080022B600300889
:100760000022B7002E08063C031DED2BAE01AD01A3
:10077000AE012D080022B8002E080022B9002F0873
:100780000022B60030080022B700341C8F2BAF0ABD
:100790002D080022B8002E080022B9002F080022E0
:1007A000B60030080022B7002F080A3C031DED2BCD
:1007B000AF01B00A2D080022B8002E080022B900AF
:1007C0002F080022B60030080022B70030080A3C8B
:1007D000031DED2BB001AF01B00108003418392C16
:1007E000221C872C27080022B80028080022B90004
:1007F00029080022B6002A080022B7002808003C79
:10080000031D1C2C2708003C031D1C2CA7032708D4
:10081000FF3C031D1C2C0930A7000530A800270849
:100820000022B80028080022B90029080022B600DA
:100830002A080022B7000800A7032708FF3C031975
:10084000222CDB2C0930A700A8032808FF3C031941
:100850002A2CDB2C0530A80027080022B800280825
:100860000022B90029080022B6002A080022B70099
:10087000EE2B341CEE2B221C872C27080022B800FC
:1008800028080022B90029080022B6002A08002200
:10089000B7002A08003C031D682C2908003C031DF2
:1008A000682CA9032908FF3C031D682C0330A9000C
:1008B0000230AA00351427080022B80028080022B8
:1008C000B90029080022B6002A080022B700080053
:1008D0003510A9032908FF3C03196F2CDB2C0930C4
:1008E000A900AA032A08FF3C0319772CDB2C35103A
:1008F0000230AA0027080022B80028080022B90008
:1009000029080022B6002A080022B700EE2B34186E
:10091000B12C221DDB2C2D080022B8002E0800224D
:10092000B9002F080022B60030080022B700AD033E
:100930002D08FF3C031DDB2C0A30AD00AE032E0852
:10094000FF3C031DDB2C0530AE002D080022B80053
:100950002E080022B9002F080022B600300800221D
:10096000B700341C872C221DDB2C2D080022B80078
:100970002E080022B9002F080022B60030080022FD
:10098000B700AF032F08FF3C031DDB2C0930AF007D
:10099000B0033008FF3C031DDB2C0930B0002D08EC
:1009A0000022B8002E080022B9002F080022B6004D
:1009B00030080022B7000800201085120800231913
:1009C00023112314051A05120515080023182310F6
:1009D000A3140519051185150800A318A3102315E4
:1009E000851985110516890108000810881008115D
:1009F00088113308013C03190B2D3308023C0319FD
:100A0000112D3308033C0319172D380887000814EB
:100A10000130B30008003908870088140230B300A1
:100A200008003608870008150330B30008003708AF
:0A0A3000870088150030B3000800AD
:04400E00D420FF3F7C
:00000001FF
