:060000000A128A11142A05
:10000800F000030EF1000B1816200B1922202218FD
:100018000F280C182A208C187F20710E8300F00EF0
:10002800700E090003138312061CDA22861C1B2398
:10003800061DEE23861DF6220B10080003138312FB
:10004800FA3081000B118801F52408000B308F006D
:10005800DC308E000C10A50A2508023C031935284F
:100068000800201C38287720A501A60A26080A3C83
:1000780003193F280800A601A70A2708063C031908
:1000880046280800A701A80A28080A3C03194D2891
:100098000800A801A90A2908063C031D5428572866
:1000A800351860280800A901AA0A2A083518602806
:1000B8000A3C0319692808002A08043C031D68281B
:1000C8003510AA01AB0170280800AA01AB0A2B0859
:1000D800023C031935140800A601A701A801A901CB
:1000E800AA01AB010800A10A21083C3C031D7E2897
:1000F8002010851208008C10B20A32080A3C031935
:1001080086280800B201051C8B2805108C280514C8
:10011800851C9028851091288514231DAC28221948
:10012800AC282E08003C031DA6282F08003C031D00
:10013800A6283008003C031DA6283108003C031DF2
:10014800A628AC28AD0A2D08023C031DAC28C52002
:100158002218B328A218B9282219BF280800051D9B
:10016800B7280511B82805150800851DBD28851173
:10017800BE2885150800051EC3280512C4280516C3
:100188000800AD012C14AE032E08003C031DDD2829
:100198002F08003C031DDD283008003C031DDD2826
:1001A8003108003C031DDD28DA28DD282C10201436
:0401B80085160800A0
:100400008A018A140F3982073F3406345B344F3433
:1004100066346D347D3407347F346F3477347C3404
:1004200039345E34793471346E225C22A222AF22D8
:10043000BD226322CB22031383122318242AA3187C
:10044000312A2319322A1D2A28080022B800290837
:100450000022B9002A080022B6002B080022B700AB
:100460001D2A1D2A2E080022B8002F080022B900DC
:1004700030080022B60031080022B7002C1C5B2A8D
:100480002E08FF3C031D5B2A0930AE00AF032E0887
:10049000FF3C031D5B2A0530AE00B0033008FF3C73
:1004A000031D5B2A0930B000B1033108FF3C031D76
:1004B0005B2A0030B1001D2A031383160F140F129C
:1004C0008F160F17080003138316161496141615AB
:1004D00096150313831206080B10080003178316E2
:1004E00088018901031383168701F0308800FC30EE
:1004F00089000614861406158615850181131514C6
:100500009514151595150313831287018801890128
:100510008501B301B601B801A001A101A201A301A7
:10052000A401A601A701A801A901AA01AB01AC0180
:10053000AD01AE01AF01B001B101B201A501B4013D
:10054000B50108000313831681128111011581146E
:10055000011403138312FA3081000B1108000313F6
:1005600083121013901610169011901010140B3067
:100570008F00DC308E000C10080003138316C3308C
:100580009200031383129214121412179216121669
:10059000921512150800031383160C148C14031300
:1005A00083120B178B178B150B108B160B110C105E
:1005B0008C1008000618F52AA219F02A2018DC244D
:1005C000890A091C18230908013C0319DF240908BA
:1005D000023C0319E6240908033C0319ED24080032
:1005E000341CF42A3410F52A341408002318FD2A88
:1005F000A318062B23190F2B0800221C032B2210F3
:10060000A2110515052B2214A2150800A21C0C2B03
:10061000A210A21185150E2BA214A2150800221DEE
:10062000152B2211A2110516172B2215A215080051
:10063000891C091408003418512B221C8F2BA80A7E
:1006400028080022B80029080022B9002A08002240
:10065000B6002B080022B70028080A3C031DED2B2A
:10066000A801A90A28080022B80029080022B90018
:100670002A080022B6002B080022B7002908063CF1
:10068000031DED2BA901A801A90128080022B8002B
:1006900029080022B9002A080022B6002B080022EF
:1006A000B700341C1B2B221CC52BAA0A28080022C9
:1006B000B80029080022B9002A080022B6002B0839
:1006C0000022B70035187B2B2A080A3C031DED2BAE
:1006D000AA01AB0A28080022B80029080022B900A4
:1006E0002A080022B6002B080022B7002B08023C83
:1006F00003193514ED2B2A08043C031DED2B35108E
:10070000AB01AA0128080022B80029080022B9007C
:100710002A080022B6002B080022B700ED2B34185F
:10072000C52B221DED2BAE0A2E080022B8002F0883
:100730000022B90030080022B60031080022B700BC
:100740002E080A3C031DED2BAE01AF0A2E08002235
:10075000B8002F080022B90030080022B600310886
:100760000022B7002F08063C031DED2BAF01AE01A0
:10077000AF012E080022B8002F080022B90030086F
:100780000022B60031080022B700341C8F2BB00ABB
:100790002E080022B8002F080022B90030080022DD
:1007A000B60031080022B70030080A3C031DED2BCB
:1007B000B001B10A2E080022B8002F080022B900AB
:1007C00030080022B60031080022B70031080A3C88
:1007D000031DED2BB101B001B10108003418392C13
:1007E000221C872C28080022B80029080022B90002
:1007F0002A080022B6002B080022B7002908003C76
:10080000031D1C2C2808003C031D1C2CA8032808D1
:10081000FF3C031D1C2C0930A8000530A900280846
:100820000022B80029080022B9002A080022B600D8
:100830002B080022B7000800A8032808FF3C031972
:10084000222CDB2C0930A800A9032908FF3C03193E
:100850002A2CDB2C0530A90028080022B800290822
:100860000022B9002A080022B6002B080022B70097
:10087000EE2B341CEE2B221C872C28080022B800FB
:1008800029080022B9002A080022B6002B080022FD
:10089000B7002B08003C031D682C2A08003C031DF0
:1008A000682CAA032A08FF3C031D682C0330AA0009
:1008B0000230AB00351428080022B80029080022B5
:1008C000B9002A080022B6002B080022B700080051
:1008D0003510AA032A08FF3C03196F2CDB2C0930C2
:1008E000AA00AB032B08FF3C0319772CDB2C351037
:1008F0000230AB0028080022B80029080022B90005
:100900002A080022B6002B080022B700EE2B34186C
:10091000B12C221DDB2C2E080022B8002F0800224B
:10092000B90030080022B60031080022B700AE033B
:100930002E08FF3C031DDB2C0A30AE00AF032F084E
:10094000FF3C031DDB2C0530AF002E080022B80051
:100950002F080022B90030080022B600310800221A
:10096000B700341C872C221DDB2C2E080022B80077
:100970002F080022B90030080022B60031080022FA
:10098000B700B0033008FF3C031DDB2C0930B0007A
:10099000B1033108FF3C031DDB2C0930B1002E08E8
:1009A0000022B8002F080022B90030080022B6004B
:1009B00031080022B7000800201085120800231912
:1009C00023112314051A05120515080023182310F6
:1009D000A3140519051185150800A318A3102315E4
:1009E000851985110516890108000810881008115D
:1009F00088113308013C03190B2D3308023C0319FD
:100A0000112D3308033C0319172D380887000814EB
:100A10000130B30008003908870088140230B300A1
:100A200008003608870008150330B30008003708AF
:0A0A3000870088150030B3000800AD
:04400E00D420FF3F7C
:00000001FF
